{
    "address": "0x9fE46736679d2D9a65F0992F2272dE9f3c7fa6e0",
    "abi": [
        {
            "inputs": [
                {
                    "internalType": "string",
                    "name": "name",
                    "type": "string"
                }
            ],
            "name": "salute",
            "outputs": [
                {
                    "internalType": "string",
                    "name": "",
                    "type": "string"
                }
            ],
            "stateMutability": "pure",
            "type": "function"
        }
    ],
    "transactionHash": "0xa90726c9f05ce0d51dfdce14b5ca661e025854dd752c312f8bdfb0415fe7b226",
    "args": [],
    "numDeployments": 1,
    "solcInputHash": "47cef6626aa20bb17a70f6ff952d2dff",
    "bytecode": "0x608060405234801561001057600080fd5b506103b6806100206000396000f3fe608060405234801561001057600080fd5b506004361061002b5760003560e01c80635860769714610030575b600080fd5b61004a600480360381019061004591906101e3565b610060565b60405161005791906102b4565b60405180910390f35b606081604051602001610073919061035e565b6040516020818303038152906040529050919050565b6000604051905090565b600080fd5b600080fd5b600080fd5b600080fd5b6000601f19601f8301169050919050565b7f4e487b7100000000000000000000000000000000000000000000000000000000600052604160045260246000fd5b6100f0826100a7565b810181811067ffffffffffffffff8211171561010f5761010e6100b8565b5b80604052505050565b6000610122610089565b905061012e82826100e7565b919050565b600067ffffffffffffffff82111561014e5761014d6100b8565b5b610157826100a7565b9050602081019050919050565b82818337600083830152505050565b600061018661018184610133565b610118565b9050828152602081018484840111156101a2576101a16100a2565b5b6101ad848285610164565b509392505050565b600082601f8301126101ca576101c961009d565b5b81356101da848260208601610173565b91505092915050565b6000602082840312156101f9576101f8610093565b5b600082013567ffffffffffffffff81111561021757610216610098565b5b610223848285016101b5565b91505092915050565b600081519050919050565b600082825260208201905092915050565b60005b8381101561026657808201518184015260208101905061024b565b83811115610275576000848401525b50505050565b60006102868261022c565b6102908185610237565b93506102a0818560208601610248565b6102a9816100a7565b840191505092915050565b600060208201905081810360008301526102ce818461027b565b905092915050565b600081905092915050565b7f48656c6c6f200000000000000000000000000000000000000000000000000000600082015250565b60006103176006836102d6565b9150610322826102e1565b600682019050919050565b60006103388261022c565b61034281856102d6565b9350610352818560208601610248565b80840191505092915050565b60006103698261030a565b9150610375828461032d565b91508190509291505056fea2646970667358221220bfaf0d23940bb69de2ac8d039307f8e99e0fc583b809056c1655e8c9b5e888e764736f6c63430008080033",
    "devdoc": {
        "kind": "dev",
        "methods": {},
        "version": 1
    },
    "userdoc": {
        "kind": "user",
        "methods": {},
        "version": 1
    },
    "storageLayout": {
        "storage": [],
        "types": null
    }
}